{
  "_format": "hh-sol-artifact-1",
  "contractName": "Course",
  "sourceName": "contracts/Course.sol",
  "abi": [
    {
      "inputs": [
        {
          "internalType": "string",
          "name": "name_",
          "type": "string"
        },
        {
          "internalType": "string",
          "name": "symbol_",
          "type": "string"
        },
        {
          "internalType": "string",
          "name": "courseURI_",
          "type": "string"
        }
      ],
      "stateMutability": "nonpayable",
      "type": "constructor"
    },
    {
      "anonymous": false,
      "inputs": [
        {
          "indexed": true,
          "internalType": "address",
          "name": "previousOwner",
          "type": "address"
        },
        {
          "indexed": true,
          "internalType": "address",
          "name": "newOwner",
          "type": "address"
        }
      ],
      "name": "OwnershipTransferred",
      "type": "event"
    },
    {
      "inputs": [],
      "name": "courseURI",
      "outputs": [
        {
          "internalType": "string",
          "name": "",
          "type": "string"
        }
      ],
      "stateMutability": "view",
      "type": "function"
    },
    {
      "inputs": [],
      "name": "get",
      "outputs": [
        {
          "components": [
            {
              "internalType": "string",
              "name": "name",
              "type": "string"
            },
            {
              "internalType": "string",
              "name": "symbol",
              "type": "string"
            },
            {
              "internalType": "uint256",
              "name": "price",
              "type": "uint256"
            },
            {
              "internalType": "bool",
              "name": "isStudent",
              "type": "bool"
            },
            {
              "internalType": "string",
              "name": "coursePreviewURI",
              "type": "string"
            }
          ],
          "internalType": "struct CourseMeta",
          "name": "",
          "type": "tuple"
        }
      ],
      "stateMutability": "view",
      "type": "function"
    },
    {
      "inputs": [
        {
          "internalType": "address",
          "name": "",
          "type": "address"
        }
      ],
      "name": "get",
      "outputs": [
        {
          "components": [
            {
              "internalType": "string",
              "name": "name",
              "type": "string"
            },
            {
              "internalType": "string",
              "name": "symbol",
              "type": "string"
            },
            {
              "internalType": "uint256",
              "name": "price",
              "type": "uint256"
            },
            {
              "internalType": "bool",
              "name": "isStudent",
              "type": "bool"
            },
            {
              "internalType": "string",
              "name": "coursePreviewURI",
              "type": "string"
            }
          ],
          "internalType": "struct CourseMeta",
          "name": "",
          "type": "tuple"
        }
      ],
      "stateMutability": "view",
      "type": "function"
    },
    {
      "inputs": [],
      "name": "name",
      "outputs": [
        {
          "internalType": "string",
          "name": "",
          "type": "string"
        }
      ],
      "stateMutability": "view",
      "type": "function"
    },
    {
      "inputs": [],
      "name": "owner",
      "outputs": [
        {
          "internalType": "address",
          "name": "",
          "type": "address"
        }
      ],
      "stateMutability": "view",
      "type": "function"
    },
    {
      "inputs": [],
      "name": "renounceOwnership",
      "outputs": [],
      "stateMutability": "nonpayable",
      "type": "function"
    },
    {
      "inputs": [],
      "name": "symbol",
      "outputs": [
        {
          "internalType": "string",
          "name": "",
          "type": "string"
        }
      ],
      "stateMutability": "view",
      "type": "function"
    },
    {
      "inputs": [
        {
          "internalType": "address",
          "name": "newOwner",
          "type": "address"
        }
      ],
      "name": "transferOwnership",
      "outputs": [],
      "stateMutability": "nonpayable",
      "type": "function"
    },
    {
      "inputs": [
        {
          "internalType": "string",
          "name": "courseURI_",
          "type": "string"
        }
      ],
      "name": "updateURI",
      "outputs": [],
      "stateMutability": "nonpayable",
      "type": "function"
    }
  ],
  "bytecode": "0x60806040523480156200001157600080fd5b50604051620011f4380380620011f4833981810160405281019062000037919062000299565b620000576200004b620000ab60201b60201c565b620000b360201b60201c565b82600190805190602001906200006f92919062000177565b5081600290805190602001906200008892919062000177565b508060039080519060200190620000a192919062000177565b50505050620004aa565b600033905090565b60008060009054906101000a900473ffffffffffffffffffffffffffffffffffffffff169050816000806101000a81548173ffffffffffffffffffffffffffffffffffffffff021916908373ffffffffffffffffffffffffffffffffffffffff1602179055508173ffffffffffffffffffffffffffffffffffffffff168173ffffffffffffffffffffffffffffffffffffffff167f8be0079c531659141344cd1fd0a4f28419497f9722a3daafe3b4186f6b6457e060405160405180910390a35050565b8280546200018590620003cf565b90600052602060002090601f016020900481019282620001a95760008555620001f5565b82601f10620001c457805160ff1916838001178555620001f5565b82800160010185558215620001f5579182015b82811115620001f4578251825591602001919060010190620001d7565b5b50905062000204919062000208565b5090565b5b808211156200022357600081600090555060010162000209565b5090565b60006200023e620002388462000363565b6200033a565b9050828152602081018484840111156200025757600080fd5b6200026484828562000399565b509392505050565b600082601f8301126200027e57600080fd5b81516200029084826020860162000227565b91505092915050565b600080600060608486031215620002af57600080fd5b600084015167ffffffffffffffff811115620002ca57600080fd5b620002d8868287016200026c565b935050602084015167ffffffffffffffff811115620002f657600080fd5b62000304868287016200026c565b925050604084015167ffffffffffffffff8111156200032257600080fd5b62000330868287016200026c565b9150509250925092565b60006200034662000359565b905062000354828262000405565b919050565b6000604051905090565b600067ffffffffffffffff8211156200038157620003806200046a565b5b6200038c8262000499565b9050602081019050919050565b60005b83811015620003b95780820151818401526020810190506200039c565b83811115620003c9576000848401525b50505050565b60006002820490506001821680620003e857607f821691505b60208210811415620003ff57620003fe6200043b565b5b50919050565b620004108262000499565b810181811067ffffffffffffffff821117156200043257620004316200046a565b5b80604052505050565b7f4e487b7100000000000000000000000000000000000000000000000000000000600052602260045260246000fd5b7f4e487b7100000000000000000000000000000000000000000000000000000000600052604160045260246000fd5b6000601f19601f8301169050919050565b610d3a80620004ba6000396000f3fe608060405234801561001057600080fd5b50600436106100935760003560e01c80638da5cb5b116100665780638da5cb5b146100fc57806395d89b411461011a578063c2bc2efc14610138578063c30f4a5a14610168578063f2fde38b1461018457610093565b806306fdde0314610098578063092e1409146100b65780636d4ce63c146100d4578063715018a6146100f2575b600080fd5b6100a06101a0565b6040516100ad9190610a12565b60405180910390f35b6100be610232565b6040516100cb9190610a12565b60405180910390f35b6100dc6102c4565b6040516100e99190610a74565b60405180910390f35b6100fa61031f565b005b6101046103a7565b60405161011191906109f7565b60405180910390f35b6101226103d0565b60405161012f9190610a12565b60405180910390f35b610152600480360381019061014d9190610824565b610462565b60405161015f9190610a74565b60405180910390f35b610182600480360381019061017d919061084d565b610479565b005b61019e60048036038101906101999190610824565b61050f565b005b6060600180546101af90610ba3565b80601f01602080910402602001604051908101604052809291908181526020018280546101db90610ba3565b80156102285780601f106101fd57610100808354040283529160200191610228565b820191906000526020600020905b81548152906001019060200180831161020b57829003601f168201915b5050505050905090565b60606003805461024190610ba3565b80601f016020809104026020016040519081016040528092919081815260200182805461026d90610ba3565b80156102ba5780601f1061028f576101008083540402835291602001916102ba565b820191906000526020600020905b81548152906001019060200180831161029d57829003601f168201915b5050505050905090565b6102cc6106d3565b60006040518060a001604052806102e16101a0565b81526020016102ee6103d0565b8152602001600081526020016000151581526020016040518060200160405280600081525081525090508091505090565b610327610607565b73ffffffffffffffffffffffffffffffffffffffff166103456103a7565b73ffffffffffffffffffffffffffffffffffffffff161461039b576040517f08c379a000000000000000000000000000000000000000000000000000000000815260040161039290610a54565b60405180910390fd5b6103a5600061060f565b565b60008060009054906101000a900473ffffffffffffffffffffffffffffffffffffffff16905090565b6060600280546103df90610ba3565b80601f016020809104026020016040519081016040528092919081815260200182805461040b90610ba3565b80156104585780601f1061042d57610100808354040283529160200191610458565b820191906000526020600020905b81548152906001019060200180831161043b57829003601f168201915b5050505050905090565b61046a6106d3565b6104726102c4565b9050919050565b610481610607565b73ffffffffffffffffffffffffffffffffffffffff1661049f6103a7565b73ffffffffffffffffffffffffffffffffffffffff16146104f5576040517f08c379a00000000000000000000000000000000000000000000000000000000081526004016104ec90610a54565b60405180910390fd5b806003908051906020019061050b929190610704565b5050565b610517610607565b73ffffffffffffffffffffffffffffffffffffffff166105356103a7565b73ffffffffffffffffffffffffffffffffffffffff161461058b576040517f08c379a000000000000000000000000000000000000000000000000000000000815260040161058290610a54565b60405180910390fd5b600073ffffffffffffffffffffffffffffffffffffffff168173ffffffffffffffffffffffffffffffffffffffff1614156105fb576040517f08c379a00000000000000000000000000000000000000000000000000000000081526004016105f290610a34565b60405180910390fd5b6106048161060f565b50565b600033905090565b60008060009054906101000a900473ffffffffffffffffffffffffffffffffffffffff169050816000806101000a81548173ffffffffffffffffffffffffffffffffffffffff021916908373ffffffffffffffffffffffffffffffffffffffff1602179055508173ffffffffffffffffffffffffffffffffffffffff168173ffffffffffffffffffffffffffffffffffffffff167f8be0079c531659141344cd1fd0a4f28419497f9722a3daafe3b4186f6b6457e060405160405180910390a35050565b6040518060a00160405280606081526020016060815260200160008152602001600015158152602001606081525090565b82805461071090610ba3565b90600052602060002090601f0160209004810192826107325760008555610779565b82601f1061074b57805160ff1916838001178555610779565b82800160010185558215610779579182015b8281111561077857825182559160200191906001019061075d565b5b509050610786919061078a565b5090565b5b808211156107a357600081600090555060010161078b565b5090565b60006107ba6107b584610abb565b610a96565b9050828152602081018484840111156107d257600080fd5b6107dd848285610b61565b509392505050565b6000813590506107f481610ced565b92915050565b600082601f83011261080b57600080fd5b813561081b8482602086016107a7565b91505092915050565b60006020828403121561083657600080fd5b6000610844848285016107e5565b91505092915050565b60006020828403121561085f57600080fd5b600082013567ffffffffffffffff81111561087957600080fd5b610885848285016107fa565b91505092915050565b61089781610b19565b82525050565b6108a681610b2b565b82525050565b60006108b782610aec565b6108c18185610af7565b93506108d1818560208601610b70565b6108da81610c64565b840191505092915050565b60006108f082610aec565b6108fa8185610b08565b935061090a818560208601610b70565b61091381610c64565b840191505092915050565b600061092b602683610b08565b915061093682610c75565b604082019050919050565b600061094e602083610b08565b915061095982610cc4565b602082019050919050565b600060a083016000830151848203600086015261098182826108ac565b9150506020830151848203602086015261099b82826108ac565b91505060408301516109b060408601826109e8565b5060608301516109c3606086018261089d565b50608083015184820360808601526109db82826108ac565b9150508091505092915050565b6109f181610b57565b82525050565b6000602082019050610a0c600083018461088e565b92915050565b60006020820190508181036000830152610a2c81846108e5565b905092915050565b60006020820190508181036000830152610a4d8161091e565b9050919050565b60006020820190508181036000830152610a6d81610941565b9050919050565b60006020820190508181036000830152610a8e8184610964565b905092915050565b6000610aa0610ab1565b9050610aac8282610bd5565b919050565b6000604051905090565b600067ffffffffffffffff821115610ad657610ad5610c35565b5b610adf82610c64565b9050602081019050919050565b600081519050919050565b600082825260208201905092915050565b600082825260208201905092915050565b6000610b2482610b37565b9050919050565b60008115159050919050565b600073ffffffffffffffffffffffffffffffffffffffff82169050919050565b6000819050919050565b82818337600083830152505050565b60005b83811015610b8e578082015181840152602081019050610b73565b83811115610b9d576000848401525b50505050565b60006002820490506001821680610bbb57607f821691505b60208210811415610bcf57610bce610c06565b5b50919050565b610bde82610c64565b810181811067ffffffffffffffff82111715610bfd57610bfc610c35565b5b80604052505050565b7f4e487b7100000000000000000000000000000000000000000000000000000000600052602260045260246000fd5b7f4e487b7100000000000000000000000000000000000000000000000000000000600052604160045260246000fd5b6000601f19601f8301169050919050565b7f4f776e61626c653a206e6577206f776e657220697320746865207a65726f206160008201527f6464726573730000000000000000000000000000000000000000000000000000602082015250565b7f4f776e61626c653a2063616c6c6572206973206e6f7420746865206f776e6572600082015250565b610cf681610b19565b8114610d0157600080fd5b5056fea26469706673582212207ef3a75729eabf45b32279000946445e8416afb8d6ff0eda88d578c6e1932c0b64736f6c63430008040033",
  "linkReferences": {},
  "deployedLinkReferences": {}
}