{
  "_format": "hh-sol-artifact-1",
  "contractName": "Registar",
  "sourceName": "contracts/Registar.sol",
  "abi": [
    {
      "inputs": [],
      "stateMutability": "nonpayable",
      "type": "constructor"
    },
    {
      "anonymous": false,
      "inputs": [
        {
          "indexed": true,
          "internalType": "address",
          "name": "previousOwner",
          "type": "address"
        },
        {
          "indexed": true,
          "internalType": "address",
          "name": "newOwner",
          "type": "address"
        }
      ],
      "name": "OwnershipTransferred",
      "type": "event"
    },
    {
      "inputs": [
        {
          "internalType": "address",
          "name": "course",
          "type": "address"
        }
      ],
      "name": "getCourseInfo",
      "outputs": [
        {
          "components": [
            {
              "components": [
                {
                  "internalType": "uint256",
                  "name": "totalStars",
                  "type": "uint256"
                },
                {
                  "internalType": "uint256",
                  "name": "ratingsCount",
                  "type": "uint256"
                },
                {
                  "internalType": "uint256",
                  "name": "enrollmentCount",
                  "type": "uint256"
                }
              ],
              "internalType": "struct Registar.Stats",
              "name": "stats",
              "type": "tuple"
            },
            {
              "components": [
                {
                  "internalType": "string",
                  "name": "name",
                  "type": "string"
                },
                {
                  "internalType": "string",
                  "name": "symbol",
                  "type": "string"
                },
                {
                  "internalType": "uint256",
                  "name": "price",
                  "type": "uint256"
                },
                {
                  "internalType": "bool",
                  "name": "isStudent",
                  "type": "bool"
                },
                {
                  "internalType": "string",
                  "name": "coursePreviewURI",
                  "type": "string"
                }
              ],
              "internalType": "struct CourseMeta",
              "name": "meta",
              "type": "tuple"
            }
          ],
          "internalType": "struct Registar.StatsWithMeta",
          "name": "",
          "type": "tuple"
        }
      ],
      "stateMutability": "view",
      "type": "function"
    },
    {
      "inputs": [],
      "name": "getCourses",
      "outputs": [
        {
          "internalType": "address[]",
          "name": "",
          "type": "address[]"
        }
      ],
      "stateMutability": "view",
      "type": "function"
    },
    {
      "inputs": [],
      "name": "getRegistarFee",
      "outputs": [
        {
          "internalType": "uint256",
          "name": "",
          "type": "uint256"
        }
      ],
      "stateMutability": "view",
      "type": "function"
    },
    {
      "inputs": [
        {
          "internalType": "address",
          "name": "course",
          "type": "address"
        }
      ],
      "name": "getStats",
      "outputs": [
        {
          "components": [
            {
              "internalType": "uint256",
              "name": "totalStars",
              "type": "uint256"
            },
            {
              "internalType": "uint256",
              "name": "ratingsCount",
              "type": "uint256"
            },
            {
              "internalType": "uint256",
              "name": "enrollmentCount",
              "type": "uint256"
            }
          ],
          "internalType": "struct Registar.Stats",
          "name": "",
          "type": "tuple"
        }
      ],
      "stateMutability": "view",
      "type": "function"
    },
    {
      "inputs": [
        {
          "internalType": "address",
          "name": "course",
          "type": "address"
        },
        {
          "internalType": "address",
          "name": "student",
          "type": "address"
        }
      ],
      "name": "isStudent",
      "outputs": [
        {
          "internalType": "bool",
          "name": "",
          "type": "bool"
        }
      ],
      "stateMutability": "view",
      "type": "function"
    },
    {
      "inputs": [],
      "name": "owner",
      "outputs": [
        {
          "internalType": "address",
          "name": "",
          "type": "address"
        }
      ],
      "stateMutability": "view",
      "type": "function"
    },
    {
      "inputs": [
        {
          "internalType": "address payable",
          "name": "course",
          "type": "address"
        }
      ],
      "name": "register",
      "outputs": [],
      "stateMutability": "payable",
      "type": "function"
    },
    {
      "inputs": [],
      "name": "renounceOwnership",
      "outputs": [],
      "stateMutability": "nonpayable",
      "type": "function"
    },
    {
      "inputs": [
        {
          "internalType": "uint256",
          "name": "minFee_",
          "type": "uint256"
        }
      ],
      "name": "setFee",
      "outputs": [],
      "stateMutability": "nonpayable",
      "type": "function"
    },
    {
      "inputs": [
        {
          "internalType": "address",
          "name": "newOwner",
          "type": "address"
        }
      ],
      "name": "transferOwnership",
      "outputs": [],
      "stateMutability": "nonpayable",
      "type": "function"
    }
  ],
  "bytecode": "0x608060405266038d7ea4c6800060015534801561001b57600080fd5b5061003861002d61003d60201b60201c565b61004560201b60201c565b610109565b600033905090565b60008060009054906101000a900473ffffffffffffffffffffffffffffffffffffffff169050816000806101000a81548173ffffffffffffffffffffffffffffffffffffffff021916908373ffffffffffffffffffffffffffffffffffffffff1602179055508173ffffffffffffffffffffffffffffffffffffffff168173ffffffffffffffffffffffffffffffffffffffff167f8be0079c531659141344cd1fd0a4f28419497f9722a3daafe3b4186f6b6457e060405160405180910390a35050565b6116ea806101186000396000f3fe6080604052600436106100915760003560e01c80638da5cb5b116100595780638da5cb5b1461016c578063c23f85d614610197578063cc126479146101d4578063f2fde38b146101ff578063fd394ce31461022857610091565b8063079f24a0146100965780634420e486146100d35780634937878d146100ef57806369fe0e2d1461012c578063715018a614610155575b600080fd5b3480156100a257600080fd5b506100bd60048036038101906100b89190610da7565b610253565b6040516100ca919061127a565b60405180910390f35b6100ed60048036038101906100e89190610dd0565b610312565b005b3480156100fb57600080fd5b5061011660048036038101906101119190610df9565b610629565b60405161012391906111df565b60405180910390f35b34801561013857600080fd5b50610153600480360381019061014e9190610e9f565b610744565b005b34801561016157600080fd5b5061016a6107ca565b005b34801561017857600080fd5b50610181610852565b60405161018e91906111a2565b60405180910390f35b3480156101a357600080fd5b506101be60048036038101906101b99190610da7565b61087b565b6040516101cb919061129c565b60405180910390f35b3480156101e057600080fd5b506101e96108f2565b6040516101f691906111bd565b60405180910390f35b34801561020b57600080fd5b5061022660048036038101906102219190610da7565b6109c0565b005b34801561023457600080fd5b5061023d610ab8565b60405161024a91906112b7565b60405180910390f35b61025b610b8e565b600082905060405180604001604052806102748561087b565b81526020018273ffffffffffffffffffffffffffffffffffffffff1663c2bc2efc336040518263ffffffff1660e01b81526004016102b291906111a2565b60006040518083038186803b1580156102ca57600080fd5b505afa1580156102de573d6000803e3d6000fd5b505050506040513d6000823e3d601f19601f820116820180604052508101906103079190610e5e565b815250915050919050565b6000819050600154341161035b576040517f08c379a00000000000000000000000000000000000000000000000000000000081526004016103529061123a565b60405180910390fd5b8073ffffffffffffffffffffffffffffffffffffffff166382f7d392336040518263ffffffff1660e01b815260040161039491906111a2565b60206040518083038186803b1580156103ac57600080fd5b505afa1580156103c0573d6000803e3d6000fd5b505050506040513d601f19601f820116820180604052508101906103e49190610e35565b15610424576040517f08c379a000000000000000000000000000000000000000000000000000000000815260040161041b9061125a565b60405180910390fd5b61042e8233610629565b1561046e576040517f08c379a00000000000000000000000000000000000000000000000000000000081526004016104659061125a565b60405180910390fd5b8073ffffffffffffffffffffffffffffffffffffffff16634420e4866001543461049891906113e4565b336040518363ffffffff1660e01b81526004016104b591906111a2565b6000604051808303818588803b1580156104ce57600080fd5b505af11580156104e2573d6000803e3d6000fd5b50505050506000600460008473ffffffffffffffffffffffffffffffffffffffff1673ffffffffffffffffffffffffffffffffffffffff16815260200190815260200160002060020154905060018161053b919061138e565b600460008573ffffffffffffffffffffffffffffffffffffffff1673ffffffffffffffffffffffffffffffffffffffff16815260200190815260200160002060020181905550600360003373ffffffffffffffffffffffffffffffffffffffff1673ffffffffffffffffffffffffffffffffffffffff168152602001908152602001600020600001839080600181540180825580915050600190039060005260206000200160009091909190916101000a81548173ffffffffffffffffffffffffffffffffffffffff021916908373ffffffffffffffffffffffffffffffffffffffff160217905550505050565b600080600360008473ffffffffffffffffffffffffffffffffffffffff1673ffffffffffffffffffffffffffffffffffffffff168152602001908152602001600020905060005b8160000180549050811015610737578160000181815481106106bb577f4e487b7100000000000000000000000000000000000000000000000000000000600052603260045260246000fd5b9060005260206000200160009054906101000a900473ffffffffffffffffffffffffffffffffffffffff1673ffffffffffffffffffffffffffffffffffffffff168573ffffffffffffffffffffffffffffffffffffffff1614156107245760019250505061073e565b808061072f906114d6565b915050610670565b5060009150505b92915050565b61074c610ac2565b73ffffffffffffffffffffffffffffffffffffffff1661076a610852565b73ffffffffffffffffffffffffffffffffffffffff16146107c0576040517f08c379a00000000000000000000000000000000000000000000000000000000081526004016107b79061121a565b60405180910390fd5b8060018190555050565b6107d2610ac2565b73ffffffffffffffffffffffffffffffffffffffff166107f0610852565b73ffffffffffffffffffffffffffffffffffffffff1614610846576040517f08c379a000000000000000000000000000000000000000000000000000000000815260040161083d9061121a565b60405180910390fd5b6108506000610aca565b565b60008060009054906101000a900473ffffffffffffffffffffffffffffffffffffffff16905090565b610883610bb4565b600460008373ffffffffffffffffffffffffffffffffffffffff1673ffffffffffffffffffffffffffffffffffffffff16815260200190815260200160002060405180606001604052908160008201548152602001600182015481526020016002820154815250509050919050565b6060600360003373ffffffffffffffffffffffffffffffffffffffff1673ffffffffffffffffffffffffffffffffffffffff1681526020019081526020016000206000018054806020026020016040519081016040528092919081815260200182805480156109b657602002820191906000526020600020905b8160009054906101000a900473ffffffffffffffffffffffffffffffffffffffff1673ffffffffffffffffffffffffffffffffffffffff168152602001906001019080831161096c575b5050505050905090565b6109c8610ac2565b73ffffffffffffffffffffffffffffffffffffffff166109e6610852565b73ffffffffffffffffffffffffffffffffffffffff1614610a3c576040517f08c379a0000000000000000000000000000000000000000000000000000000008152600401610a339061121a565b60405180910390fd5b600073ffffffffffffffffffffffffffffffffffffffff168173ffffffffffffffffffffffffffffffffffffffff161415610aac576040517f08c379a0000000000000000000000000000000000000000000000000000000008152600401610aa3906111fa565b60405180910390fd5b610ab581610aca565b50565b6000600154905090565b600033905090565b60008060009054906101000a900473ffffffffffffffffffffffffffffffffffffffff169050816000806101000a81548173ffffffffffffffffffffffffffffffffffffffff021916908373ffffffffffffffffffffffffffffffffffffffff1602179055508173ffffffffffffffffffffffffffffffffffffffff168173ffffffffffffffffffffffffffffffffffffffff167f8be0079c531659141344cd1fd0a4f28419497f9722a3daafe3b4186f6b6457e060405160405180910390a35050565b6040518060400160405280610ba1610bb4565b8152602001610bae610bd5565b81525090565b60405180606001604052806000815260200160008152602001600081525090565b6040518060a00160405280606081526020016060815260200160008152602001600015158152602001606081525090565b6000610c19610c14846112f7565b6112d2565b905082815260208101848484011115610c3157600080fd5b610c3c848285611472565b509392505050565b600081359050610c5381611658565b92915050565b600081359050610c688161166f565b92915050565b600081519050610c7d81611686565b92915050565b600082601f830112610c9457600080fd5b8151610ca4848260208601610c06565b91505092915050565b600060a08284031215610cbf57600080fd5b610cc960a06112d2565b9050600082015167ffffffffffffffff811115610ce557600080fd5b610cf184828501610c83565b600083015250602082015167ffffffffffffffff811115610d1157600080fd5b610d1d84828501610c83565b6020830152506040610d3184828501610d92565b6040830152506060610d4584828501610c6e565b606083015250608082015167ffffffffffffffff811115610d6557600080fd5b610d7184828501610c83565b60808301525092915050565b600081359050610d8c8161169d565b92915050565b600081519050610da18161169d565b92915050565b600060208284031215610db957600080fd5b6000610dc784828501610c44565b91505092915050565b600060208284031215610de257600080fd5b6000610df084828501610c59565b91505092915050565b60008060408385031215610e0c57600080fd5b6000610e1a85828601610c44565b9250506020610e2b85828601610c44565b9150509250929050565b600060208284031215610e4757600080fd5b6000610e5584828501610c6e565b91505092915050565b600060208284031215610e7057600080fd5b600082015167ffffffffffffffff811115610e8a57600080fd5b610e9684828501610cad565b91505092915050565b600060208284031215610eb157600080fd5b6000610ebf84828501610d7d565b91505092915050565b6000610ed48383610ee0565b60208301905092915050565b610ee981611418565b82525050565b610ef881611418565b82525050565b6000610f0982611338565b610f13818561135b565b9350610f1e83611328565b8060005b83811015610f4f578151610f368882610ec8565b9750610f418361134e565b925050600181019050610f22565b5085935050505092915050565b610f658161143c565b82525050565b610f748161143c565b82525050565b6000610f8582611343565b610f8f818561136c565b9350610f9f818560208601611472565b610fa88161157d565b840191505092915050565b6000610fc060268361137d565b9150610fcb8261158e565b604082019050919050565b6000610fe360208361137d565b9150610fee826115dd565b602082019050919050565b6000611006601d8361137d565b915061101182611606565b602082019050919050565b600061102960118361137d565b91506110348261162f565b602082019050919050565b600060a083016000830151848203600086015261105c8282610f7a565b915050602083015184820360208601526110768282610f7a565b915050604083015161108b6040860182611184565b50606083015161109e6060860182610f5c565b50608083015184820360808601526110b68282610f7a565b9150508091505092915050565b60006080830160008301516110db6000860182611100565b50602083015184820360608601526110f3828261103f565b9150508091505092915050565b6060820160008201516111166000850182611184565b5060208201516111296020850182611184565b50604082015161113c6040850182611184565b50505050565b6060820160008201516111586000850182611184565b50602082015161116b6020850182611184565b50604082015161117e6040850182611184565b50505050565b61118d81611468565b82525050565b61119c81611468565b82525050565b60006020820190506111b76000830184610eef565b92915050565b600060208201905081810360008301526111d78184610efe565b905092915050565b60006020820190506111f46000830184610f6b565b92915050565b6000602082019050818103600083015261121381610fb3565b9050919050565b6000602082019050818103600083015261123381610fd6565b9050919050565b6000602082019050818103600083015261125381610ff9565b9050919050565b600060208201905081810360008301526112738161101c565b9050919050565b6000602082019050818103600083015261129481846110c3565b905092915050565b60006060820190506112b16000830184611142565b92915050565b60006020820190506112cc6000830184611193565b92915050565b60006112dc6112ed565b90506112e882826114a5565b919050565b6000604051905090565b600067ffffffffffffffff8211156113125761131161154e565b5b61131b8261157d565b9050602081019050919050565b6000819050602082019050919050565b600081519050919050565b600081519050919050565b6000602082019050919050565b600082825260208201905092915050565b600082825260208201905092915050565b600082825260208201905092915050565b600061139982611468565b91506113a483611468565b9250827fffffffffffffffffffffffffffffffffffffffffffffffffffffffffffffffff038211156113d9576113d861151f565b5b828201905092915050565b60006113ef82611468565b91506113fa83611468565b92508282101561140d5761140c61151f565b5b828203905092915050565b600061142382611448565b9050919050565b600061143582611448565b9050919050565b60008115159050919050565b600073ffffffffffffffffffffffffffffffffffffffff82169050919050565b6000819050919050565b60005b83811015611490578082015181840152602081019050611475565b8381111561149f576000848401525b50505050565b6114ae8261157d565b810181811067ffffffffffffffff821117156114cd576114cc61154e565b5b80604052505050565b60006114e182611468565b91507fffffffffffffffffffffffffffffffffffffffffffffffffffffffffffffffff8214156115145761151361151f565b5b600182019050919050565b7f4e487b7100000000000000000000000000000000000000000000000000000000600052601160045260246000fd5b7f4e487b7100000000000000000000000000000000000000000000000000000000600052604160045260246000fd5b6000601f19601f8301169050919050565b7f4f776e61626c653a206e6577206f776e657220697320746865207a65726f206160008201527f6464726573730000000000000000000000000000000000000000000000000000602082015250565b7f4f776e61626c653a2063616c6c6572206973206e6f7420746865206f776e6572600082015250565b7f4e6f7420656e6f7567682066756e647320746f20636f76657220666565000000600082015250565b7f416c726561647920612073747564656e74000000000000000000000000000000600082015250565b61166181611418565b811461166c57600080fd5b50565b6116788161142a565b811461168357600080fd5b50565b61168f8161143c565b811461169a57600080fd5b50565b6116a681611468565b81146116b157600080fd5b5056fea264697066735822122018e0d467e98f567893d00e015d69edd59d40ac46f5a20065d72e1f83b7eaa0b564736f6c63430008040033",
  "linkReferences": {},
  "deployedLinkReferences": {}
}