{
  "_format": "hh-sol-artifact-1",
  "contractName": "PaidCourse",
  "sourceName": "contracts/PaidCourse.sol",
  "abi": [
    {
      "inputs": [
        {
          "internalType": "string",
          "name": "name_",
          "type": "string"
        },
        {
          "internalType": "string",
          "name": "symbol_",
          "type": "string"
        },
        {
          "internalType": "string",
          "name": "courseURI_",
          "type": "string"
        },
        {
          "internalType": "string",
          "name": "coursePreviewURI_",
          "type": "string"
        },
        {
          "internalType": "uint256",
          "name": "price_",
          "type": "uint256"
        }
      ],
      "stateMutability": "nonpayable",
      "type": "constructor"
    },
    {
      "anonymous": false,
      "inputs": [
        {
          "indexed": true,
          "internalType": "address",
          "name": "previousOwner",
          "type": "address"
        },
        {
          "indexed": true,
          "internalType": "address",
          "name": "newOwner",
          "type": "address"
        }
      ],
      "name": "OwnershipTransferred",
      "type": "event"
    },
    {
      "inputs": [],
      "name": "coursePreviewURI",
      "outputs": [
        {
          "internalType": "string",
          "name": "",
          "type": "string"
        }
      ],
      "stateMutability": "view",
      "type": "function"
    },
    {
      "inputs": [],
      "name": "courseURI",
      "outputs": [
        {
          "internalType": "string",
          "name": "",
          "type": "string"
        }
      ],
      "stateMutability": "view",
      "type": "function"
    },
    {
      "inputs": [],
      "name": "get",
      "outputs": [
        {
          "components": [
            {
              "internalType": "string",
              "name": "name",
              "type": "string"
            },
            {
              "internalType": "string",
              "name": "symbol",
              "type": "string"
            },
            {
              "internalType": "uint256",
              "name": "price",
              "type": "uint256"
            },
            {
              "internalType": "bool",
              "name": "isStudent",
              "type": "bool"
            },
            {
              "internalType": "string",
              "name": "coursePreviewURI",
              "type": "string"
            }
          ],
          "internalType": "struct CourseMeta",
          "name": "",
          "type": "tuple"
        }
      ],
      "stateMutability": "view",
      "type": "function"
    },
    {
      "inputs": [
        {
          "internalType": "address",
          "name": "student",
          "type": "address"
        }
      ],
      "name": "get",
      "outputs": [
        {
          "components": [
            {
              "internalType": "string",
              "name": "name",
              "type": "string"
            },
            {
              "internalType": "string",
              "name": "symbol",
              "type": "string"
            },
            {
              "internalType": "uint256",
              "name": "price",
              "type": "uint256"
            },
            {
              "internalType": "bool",
              "name": "isStudent",
              "type": "bool"
            },
            {
              "internalType": "string",
              "name": "coursePreviewURI",
              "type": "string"
            }
          ],
          "internalType": "struct CourseMeta",
          "name": "",
          "type": "tuple"
        }
      ],
      "stateMutability": "view",
      "type": "function"
    },
    {
      "inputs": [
        {
          "internalType": "address",
          "name": "student",
          "type": "address"
        }
      ],
      "name": "isCompleted",
      "outputs": [
        {
          "internalType": "bool",
          "name": "",
          "type": "bool"
        }
      ],
      "stateMutability": "view",
      "type": "function"
    },
    {
      "inputs": [
        {
          "internalType": "address",
          "name": "student",
          "type": "address"
        }
      ],
      "name": "isStudent",
      "outputs": [
        {
          "internalType": "bool",
          "name": "",
          "type": "bool"
        }
      ],
      "stateMutability": "view",
      "type": "function"
    },
    {
      "inputs": [],
      "name": "name",
      "outputs": [
        {
          "internalType": "string",
          "name": "",
          "type": "string"
        }
      ],
      "stateMutability": "view",
      "type": "function"
    },
    {
      "inputs": [],
      "name": "owner",
      "outputs": [
        {
          "internalType": "address",
          "name": "",
          "type": "address"
        }
      ],
      "stateMutability": "view",
      "type": "function"
    },
    {
      "inputs": [],
      "name": "register",
      "outputs": [],
      "stateMutability": "payable",
      "type": "function"
    },
    {
      "inputs": [
        {
          "internalType": "address",
          "name": "student",
          "type": "address"
        }
      ],
      "name": "register",
      "outputs": [],
      "stateMutability": "payable",
      "type": "function"
    },
    {
      "inputs": [],
      "name": "renounceOwnership",
      "outputs": [],
      "stateMutability": "nonpayable",
      "type": "function"
    },
    {
      "inputs": [],
      "name": "symbol",
      "outputs": [
        {
          "internalType": "string",
          "name": "",
          "type": "string"
        }
      ],
      "stateMutability": "view",
      "type": "function"
    },
    {
      "inputs": [
        {
          "internalType": "address",
          "name": "newOwner",
          "type": "address"
        }
      ],
      "name": "transferOwnership",
      "outputs": [],
      "stateMutability": "nonpayable",
      "type": "function"
    },
    {
      "inputs": [
        {
          "internalType": "string",
          "name": "coursePreviewURI_",
          "type": "string"
        }
      ],
      "name": "updatePreviewURI",
      "outputs": [],
      "stateMutability": "nonpayable",
      "type": "function"
    },
    {
      "inputs": [
        {
          "internalType": "string",
          "name": "courseURI_",
          "type": "string"
        }
      ],
      "name": "updateURI",
      "outputs": [],
      "stateMutability": "nonpayable",
      "type": "function"
    }
  ],
  "bytecode": "0x60806040523480156200001157600080fd5b50604051620018a4380380620018a48339818101604052810190620000379190620002d8565b8484846200005a6200004e620000d360201b60201c565b620000db60201b60201c565b8260019080519060200190620000729291906200019f565b5081600290805190602001906200008b9291906200019f565b508060039080519060200190620000a49291906200019f565b50505050806004819055508160059080519060200190620000c79291906200019f565b50505050505062000552565b600033905090565b60008060009054906101000a900473ffffffffffffffffffffffffffffffffffffffff169050816000806101000a81548173ffffffffffffffffffffffffffffffffffffffff021916908373ffffffffffffffffffffffffffffffffffffffff1602179055508173ffffffffffffffffffffffffffffffffffffffff168173ffffffffffffffffffffffffffffffffffffffff167f8be0079c531659141344cd1fd0a4f28419497f9722a3daafe3b4186f6b6457e060405160405180910390a35050565b828054620001ad906200045d565b90600052602060002090601f016020900481019282620001d157600085556200021d565b82601f10620001ec57805160ff19168380011785556200021d565b828001600101855582156200021d579182015b828111156200021c578251825591602001919060010190620001ff565b5b5090506200022c919062000230565b5090565b5b808211156200024b57600081600090555060010162000231565b5090565b6000620002666200026084620003e7565b620003be565b9050828152602081018484840111156200027f57600080fd5b6200028c84828562000427565b509392505050565b600082601f830112620002a657600080fd5b8151620002b88482602086016200024f565b91505092915050565b600081519050620002d28162000538565b92915050565b600080600080600060a08688031215620002f157600080fd5b600086015167ffffffffffffffff8111156200030c57600080fd5b6200031a8882890162000294565b955050602086015167ffffffffffffffff8111156200033857600080fd5b620003468882890162000294565b945050604086015167ffffffffffffffff8111156200036457600080fd5b620003728882890162000294565b935050606086015167ffffffffffffffff8111156200039057600080fd5b6200039e8882890162000294565b9250506080620003b188828901620002c1565b9150509295509295909350565b6000620003ca620003dd565b9050620003d8828262000493565b919050565b6000604051905090565b600067ffffffffffffffff821115620004055762000404620004f8565b5b620004108262000527565b9050602081019050919050565b6000819050919050565b60005b83811015620004475780820151818401526020810190506200042a565b8381111562000457576000848401525b50505050565b600060028204905060018216806200047657607f821691505b602082108114156200048d576200048c620004c9565b5b50919050565b6200049e8262000527565b810181811067ffffffffffffffff82111715620004c057620004bf620004f8565b5b80604052505050565b7f4e487b7100000000000000000000000000000000000000000000000000000000600052602260045260246000fd5b7f4e487b7100000000000000000000000000000000000000000000000000000000600052604160045260246000fd5b6000601f19601f8301169050919050565b62000543816200041d565b81146200054f57600080fd5b50565b61134280620005626000396000f3fe6080604052600436106100e85760003560e01c80636d4ce63c1161008a57806395d89b411161005957806395d89b41146102a4578063c2bc2efc146102cf578063c30f4a5a1461030c578063f2fde38b14610335576100e8565b80636d4ce63c146101fa578063715018a61461022557806382f7d3921461023c5780638da5cb5b14610279576100e8565b80630a167c69116100c65780630a167c69146101805780631aa3a008146101ab5780634420e486146101b55780635fd657c1146101d1576100e8565b8063030bd8c9146100ed57806306fdde031461012a578063092e140914610155575b600080fd5b3480156100f957600080fd5b50610114600480360381019061010f9190610d04565b61035e565b6040516101219190610f47565b60405180910390f35b34801561013657600080fd5b5061013f6103b7565b60405161014c9190610f62565b60405180910390f35b34801561016157600080fd5b5061016a610449565b6040516101779190610f62565b60405180910390f35b34801561018c57600080fd5b50610195610523565b6040516101a29190610f62565b60405180910390f35b6101b36105b5565b005b6101cf60048036038101906101ca9190610d04565b610605565b005b3480156101dd57600080fd5b506101f860048036038101906101f39190610d2d565b610656565b005b34801561020657600080fd5b5061020f6106ec565b60405161021c9190611004565b60405180910390f35b34801561023157600080fd5b5061023a610702565b005b34801561024857600080fd5b50610263600480360381019061025e9190610d04565b61078a565b6040516102709190610f47565b60405180910390f35b34801561028557600080fd5b5061028e6107e3565b60405161029b9190610f2c565b60405180910390f35b3480156102b057600080fd5b506102b961080c565b6040516102c69190610f62565b60405180910390f35b3480156102db57600080fd5b506102f660048036038101906102f19190610d04565b61089e565b6040516103039190611004565b60405180910390f35b34801561031857600080fd5b50610333600480360381019061032e9190610d2d565b6108fb565b005b34801561034157600080fd5b5061035c60048036038101906103579190610d04565b610991565b005b6000600660008373ffffffffffffffffffffffffffffffffffffffff1673ffffffffffffffffffffffffffffffffffffffff16815260200190815260200160002060000160019054906101000a900460ff169050919050565b6060600180546103c690611133565b80601f01602080910402602001604051908101604052809291908181526020018280546103f290611133565b801561043f5780601f106104145761010080835404028352916020019161043f565b820191906000526020600020905b81548152906001019060200180831161042257829003601f168201915b5050505050905090565b60606104543361078a565b610493576040517f08c379a000000000000000000000000000000000000000000000000000000000815260040161048a90610fa4565b60405180910390fd5b600380546104a090611133565b80601f01602080910402602001604051908101604052809291908181526020018280546104cc90611133565b80156105195780601f106104ee57610100808354040283529160200191610519565b820191906000526020600020905b8154815290600101906020018083116104fc57829003601f168201915b5050505050905090565b60606005805461053290611133565b80601f016020809104026020016040519081016040528092919081815260200182805461055e90611133565b80156105ab5780601f10610580576101008083540402835291602001916105ab565b820191906000526020600020905b81548152906001019060200180831161058e57829003601f168201915b5050505050905090565b6004543410156105fa576040517f08c379a00000000000000000000000000000000000000000000000000000000081526004016105f190610fe4565b60405180910390fd5b61060333610a89565b565b60045434101561064a576040517f08c379a000000000000000000000000000000000000000000000000000000000815260040161064190610fe4565b60405180910390fd5b61065381610a89565b50565b61065e610ae7565b73ffffffffffffffffffffffffffffffffffffffff1661067c6107e3565b73ffffffffffffffffffffffffffffffffffffffff16146106d2576040517f08c379a00000000000000000000000000000000000000000000000000000000081526004016106c990610fc4565b60405180910390fd5b80600590805190602001906106e8929190610bb3565b5050565b6106f4610c39565b6106fd3361089e565b905090565b61070a610ae7565b73ffffffffffffffffffffffffffffffffffffffff166107286107e3565b73ffffffffffffffffffffffffffffffffffffffff161461077e576040517f08c379a000000000000000000000000000000000000000000000000000000000815260040161077590610fc4565b60405180910390fd5b6107886000610aef565b565b6000600660008373ffffffffffffffffffffffffffffffffffffffff1673ffffffffffffffffffffffffffffffffffffffff16815260200190815260200160002060000160009054906101000a900460ff169050919050565b60008060009054906101000a900473ffffffffffffffffffffffffffffffffffffffff16905090565b60606002805461081b90611133565b80601f016020809104026020016040519081016040528092919081815260200182805461084790611133565b80156108945780601f1061086957610100808354040283529160200191610894565b820191906000526020600020905b81548152906001019060200180831161087757829003601f168201915b5050505050905090565b6108a6610c39565b60006040518060a001604052806108bb6103b7565b81526020016108c861080c565b815260200160045481526020016108de8561078a565b151581526020016108ed610523565b815250905080915050919050565b610903610ae7565b73ffffffffffffffffffffffffffffffffffffffff166109216107e3565b73ffffffffffffffffffffffffffffffffffffffff1614610977576040517f08c379a000000000000000000000000000000000000000000000000000000000815260040161096e90610fc4565b60405180910390fd5b806003908051906020019061098d929190610bb3565b5050565b610999610ae7565b73ffffffffffffffffffffffffffffffffffffffff166109b76107e3565b73ffffffffffffffffffffffffffffffffffffffff1614610a0d576040517f08c379a0000000000000000000000000000000000000000000000000000000008152600401610a0490610fc4565b60405180910390fd5b600073ffffffffffffffffffffffffffffffffffffffff168173ffffffffffffffffffffffffffffffffffffffff161415610a7d576040517f08c379a0000000000000000000000000000000000000000000000000000000008152600401610a7490610f84565b60405180910390fd5b610a8681610aef565b50565b6001600660008373ffffffffffffffffffffffffffffffffffffffff1673ffffffffffffffffffffffffffffffffffffffff16815260200190815260200160002060000160006101000a81548160ff02191690831515021790555050565b600033905090565b60008060009054906101000a900473ffffffffffffffffffffffffffffffffffffffff169050816000806101000a81548173ffffffffffffffffffffffffffffffffffffffff021916908373ffffffffffffffffffffffffffffffffffffffff1602179055508173ffffffffffffffffffffffffffffffffffffffff168173ffffffffffffffffffffffffffffffffffffffff167f8be0079c531659141344cd1fd0a4f28419497f9722a3daafe3b4186f6b6457e060405160405180910390a35050565b828054610bbf90611133565b90600052602060002090601f016020900481019282610be15760008555610c28565b82601f10610bfa57805160ff1916838001178555610c28565b82800160010185558215610c28579182015b82811115610c27578251825591602001919060010190610c0c565b5b509050610c359190610c6a565b5090565b6040518060a00160405280606081526020016060815260200160008152602001600015158152602001606081525090565b5b80821115610c83576000816000905550600101610c6b565b5090565b6000610c9a610c958461104b565b611026565b905082815260208101848484011115610cb257600080fd5b610cbd8482856110f1565b509392505050565b600081359050610cd4816112f5565b92915050565b600082601f830112610ceb57600080fd5b8135610cfb848260208601610c87565b91505092915050565b600060208284031215610d1657600080fd5b6000610d2484828501610cc5565b91505092915050565b600060208284031215610d3f57600080fd5b600082013567ffffffffffffffff811115610d5957600080fd5b610d6584828501610cda565b91505092915050565b610d77816110a9565b82525050565b610d86816110bb565b82525050565b610d95816110bb565b82525050565b6000610da68261107c565b610db08185611087565b9350610dc0818560208601611100565b610dc9816111f4565b840191505092915050565b6000610ddf8261107c565b610de98185611098565b9350610df9818560208601611100565b610e02816111f4565b840191505092915050565b6000610e1a602683611098565b9150610e2582611205565b604082019050919050565b6000610e3d602483611098565b9150610e4882611254565b604082019050919050565b6000610e60602083611098565b9150610e6b826112a3565b602082019050919050565b6000610e83600f83611098565b9150610e8e826112cc565b602082019050919050565b600060a0830160008301518482036000860152610eb68282610d9b565b91505060208301518482036020860152610ed08282610d9b565b9150506040830151610ee56040860182610f1d565b506060830151610ef86060860182610d7d565b5060808301518482036080860152610f108282610d9b565b9150508091505092915050565b610f26816110e7565b82525050565b6000602082019050610f416000830184610d6e565b92915050565b6000602082019050610f5c6000830184610d8c565b92915050565b60006020820190508181036000830152610f7c8184610dd4565b905092915050565b60006020820190508181036000830152610f9d81610e0d565b9050919050565b60006020820190508181036000830152610fbd81610e30565b9050919050565b60006020820190508181036000830152610fdd81610e53565b9050919050565b60006020820190508181036000830152610ffd81610e76565b9050919050565b6000602082019050818103600083015261101e8184610e99565b905092915050565b6000611030611041565b905061103c8282611165565b919050565b6000604051905090565b600067ffffffffffffffff821115611066576110656111c5565b5b61106f826111f4565b9050602081019050919050565b600081519050919050565b600082825260208201905092915050565b600082825260208201905092915050565b60006110b4826110c7565b9050919050565b60008115159050919050565b600073ffffffffffffffffffffffffffffffffffffffff82169050919050565b6000819050919050565b82818337600083830152505050565b60005b8381101561111e578082015181840152602081019050611103565b8381111561112d576000848401525b50505050565b6000600282049050600182168061114b57607f821691505b6020821081141561115f5761115e611196565b5b50919050565b61116e826111f4565b810181811067ffffffffffffffff8211171561118d5761118c6111c5565b5b80604052505050565b7f4e487b7100000000000000000000000000000000000000000000000000000000600052602260045260246000fd5b7f4e487b7100000000000000000000000000000000000000000000000000000000600052604160045260246000fd5b6000601f19601f8301169050919050565b7f4f776e61626c653a206e6577206f776e657220697320746865207a65726f206160008201527f6464726573730000000000000000000000000000000000000000000000000000602082015250565b7f436f75727365205552492069732061636365737369626c6520746f207374756460008201527f656e747300000000000000000000000000000000000000000000000000000000602082015250565b7f4f776e61626c653a2063616c6c6572206973206e6f7420746865206f776e6572600082015250565b7f4e65656420746f20706179207570210000000000000000000000000000000000600082015250565b6112fe816110a9565b811461130957600080fd5b5056fea264697066735822122064797fde94a918b15a7ea07075554d914b8727f8b6e00d1ee2f1fc1d808b452764736f6c63430008040033",
  "linkReferences": {},
  "deployedLinkReferences": {}
}